:020000040000FA
:060000009EEF19F0120052
:0A000600020072330000CD0000007C
:100010000100000068330000C30000000A00000077
:10002000D9CFE6FFE1CFD9FFE652DF6A0A0EDF5CE7
:100030000DE2EA6ADF34FE0BEA36E96E800EE9264D
:10004000000EEA22EE6AED6ADF2AF0D7DF6A020EBE
:10005000DF5C0AE2DF50EA6A940FE96E000EEA22E2
:10006000200EEF6EDF2AF3D7E668F00EE66E0A0E7A
:10007000E66EE80EE66E71EC13F0E552E552E552DD
:10008000E552210EE66E200EE66E0E0EE66EE80ECE
:10009000E66E71EC13F0E552E552E552E552210EA1
:1000A000E66E200EE66E0C0EE66EE80EE66E71EC65
:1000B00013F0E552E552E552E552E668F00EE66EC1
:1000C000040EE66EE40EE66E71EC13F0E552E552B6
:1000D000E552E552210EE66E200EE66E020EE66E49
:1000E000E40EE66E71EC13F0E552E552E552E5528E
:1000F000210EE66E200EE66EE66AE40EE66E71EC08
:1001000013F0E552E552E552E552E668E6680A0E5C
:10011000E66EEC0EE66E71EC13F0E552E552E55238
:10012000E552E668E668040EE66EE20EE66E71ECF5
:1001300013F0E552E552E552E5528DEC16F0E5522A
:10014000E552E7CFD9FF1200D9CFE6FFE1CFD9FFC3
:10015000030EE126DE52080EDD6E020EDB6A050E8E
:10016000F36E020EDBCFF4FFF350F45C45E2020EB7
:10017000EA6ADB34FE0BEA36E96E800EE926000EF1
:10018000EA22EECF0BF0EFCF0CF00B50DF6EDFCF9B
:10019000E6FF010EDBCFE6FFE80EE66E51EC13F052
:1001A000E552E552E552020EEA6ADB34FE0BEA360E
:1001B000E96E800EE926000EEA22EECF0BF0EFCFBB
:1001C0000CF00CC00BF00C6A0B50DF6EDFCFE6FFBB
:1001D000010EDBCFE6FFEC0EE66E51EC13F0E552BC
:1001E000E552E552010EDB50FE0FE76E010EE7CF40
:1001F000DBFF020EDB2AB3D7DE520E0EDD6E050EDC
:10020000F36E020EF3CFDBFF0A0EF36E020EDBCFAE
:10021000F4FFF350F45C45E2020EEA6ADB34FE0BB5
:10022000EA36E96E800EE926000EEA22EECF0BF0E8
:10023000EFCF0CF00B50DF6EDFCFE6FF010EDBCF10
:10024000E6FFE40EE66E51EC13F0E552E552E5529E
:10025000020EEA6ADB34FE0BEA36E96E800EE9260E
:10026000000EEA22EECF0BF0EFCF0CF00CC00BF03B
:100270000C6A0B50DF6EDFCFE6FF010EDBCFE6FF2F
:10028000E20EE66E51EC13F0E552E552E552010E36
:10029000DB50FE0FE76E010EE7CFDBFF020EDB2A1D
:1002A000B3D78DEC16F0030EE15C02E2E16AE55291
:1002B000E16EE552E7CFD9FF1200D9CFE6FFE1CFDB
:1002C000D9FFE6520001C91D01E1CA1D12E1C96B47
:1002D000CA6B9D0EE66E000EE66E17EC0AF0E55254
:1002E000E552AB0EE66E000EE66E17EC0AF0E55234
:1002F000E552070E0001CAAF02D0D89003D0C95D05
:10030000000ECA592AE3C96BCA6BDF6A070EDF5CAD
:100310001CE2EA6ADF34FE0BEA36E96EAB0EE92630
:10032000000EEA22EECF0BF0EFCF0CF0EA6ADF34DA
:10033000FE0BEA36E96E9D0EE926000EEA220BC09E
:10034000EEFF0CC0EDFFDF2AE1D7AB0EE66E000E2C
:10035000E66E17EC0AF0E552E5520001C35101E0E8
:10036000A3D0C9C0CBF0CAC0CCF00001410E9C6F35
:100370000001C9C0E9FFCAC0EAFFC92B000ECA23A9
:10038000D890E936EA369D0EE926000EEA22EECF35
:100390000BF0EFCF0CF0070E0B1801E10C505BE0F7
:1003A000060E0B1801E10C504CE0050E0B1801E194
:1003B0000C503DE0040E0B1801E10C502EE0030E32
:1003C0000B1801E10C501FE0020E0B1801E10C505C
:1003D00010E0010E0B1801E10C5001E046D00001C5
:1003E000400E986F500E996F410E9A6F510E9B6F91
:1003F0003CD00001310E986F410E996F510E9A6FEB
:10040000610E9B6F32D00001310E986F400E996FD4
:10041000410E9A6F500E9B6F28D00001300E986FDE
:10042000400E996F410E9A6F510E9B6F1ED00001C6
:10043000300E986F310E996F400E9A6F500E9B6F71
:1004400014D00001300E986F400E996F500E9A6FC5
:10045000510E9B6F0AD00001300E986F400E996FBD
:10046000410E9A6F500E9B6F00D0DF6A040EDF5C66
:1004700015E2DF50EA6A980FE96E000EEA22EF50AB
:10048000E66EE66A800EE66E000EE66E97EC13F0FE
:10049000E552E552E552E552DF2AE8D755DEAFECEA
:1004A0000AF00001010EC36FE552E552E7CFD9FF14
:1004B0001200D9CFE6FFE1CFD9FF020EE126010EEF
:1004C000DB6A0001C30501E0DED1D950FD0FE96E02
:1004D000FF0EDA20EA6E010EEE1801E1ED5001E0A8
:1004E00092D0DF6A040EDF5C15E2DF50EA6A980FF3
:1004F000E96E000EEA22EF50E66EE66A800EE66EC6
:10050000000EE66E80EC14F0E552E552E552E5523D
:10051000DF2AE8D7DF6A040EDF5C25E2DF50EA6AF3
:10052000980FE96E000EEA22EF50F00B16E0DF5054
:10053000EA6A980FE96E000EEA22EF50F00FE66EBD
:10054000E66A800EE66E000EE66E05EC15F0E552EA
:10055000E552E552E552010804E1DE52010EDD6E7E
:1005600002D0DF2AD8D7010EDB5034E1F00E0001B3
:100570009C15100803E2100E9C5D9C6FDF6A040E50
:10058000DF5C27E2DF50EA6A980FE96E000EEA228C
:10059000EF50F00FE66EDF50EA6A980FE96E000E3A
:1005A000EA22E552E750EF6EDF50EA6A980FE96EF3
:1005B000000EEA22EF50E66EE66A800EE66E000E4E
:1005C000E66E97EC13F0E552E552E552E552DF2A6C
:1005D000D6D719D0DF6A040EDF5C15E2DF50EA6A75
:1005E000980FE96E000EEA22EF50E66EE66A800E82
:1005F000E66E000EE66E97EC13F0E552E552E5521A
:10060000E552DF2AE8D7D950FD0FE96EFF0EDA2058
:10061000EA6E020EEE1801E1ED5001E095D0DF6ABE
:10062000040EDF5C15E2DF50EA6A980FE96E000EF7
:10063000EA22EF50E66EE66A800EE66E000EE66E87
:1006400080EC14F0E552E552E552E552DF2AE8D796
:10065000DF6A040EDF5C26E2DF50EA6A980FE96E7B
:10066000000EEA22EF50F00B900816E0DF50EA6A25
:10067000980FE96E000EEA22EF50100FE66EE66A60
:10068000800EE66E000EE66E05EC15F0E552E552C2
:10069000E552E552010804E1DE52010EDD6E02D0A2
:1006A000DF2AD7D7010EDB5036E1F00E00019C1592
:1006B0000B6E800E0B5C03E2100E9C259C6FDF6AB4
:1006C000040EDF5C27E2DF50EA6A980FE96E000E45
:1006D000EA22EF50100FE66EDF50EA6A980FE96EDB
:1006E000000EEA22E552E750EF6EDF50EA6A980FFB
:1006F000E96E000EEA22EF50E66EE66A800EE66EC4
:10070000000EE66E97EC13F0E552E552E552E55225
:10071000DF2AD6D719D0DF6A040EDF5C15E2DF507E
:10072000EA6A980FE96E000EEA22EF50E66EE66A7A
:10073000800EE66E000EE66E97EC13F0E552E55281
:10074000E552E552DF2AE8D7D950FD0FE96EFF0EDA
:10075000DA20EA6E030EEE1801E1ED5001E091D0CF
:10076000DF6A040EDF5C15E2DF50EA6A980FE96E7B
:10077000000EEA22EF50E66EE66A800EE66E000E8C
:10078000E66E80EC14F0E552E552E552E552DF2AC0
:10079000E8D7DF6A040EDF5C24E2DF50EA6A980FD4
:1007A000E96E000EEA22EF500F0B0F0815E0DF5044
:1007B000EA6A980FE96E000EEA22EF28E66EE66A12
:1007C000800EE66E000EE66E05EC15F0E552E55281
:1007D000E552E552010803E10001C36B02D0DF2AB4
:1007E000D9D70001C30534E10F0E00019C150B6E33
:1007F0000E0E0B5C02E29C299C6FDF6A040EDF5C2C
:1008000026E2DF50EA6A980FE96E000EEA22EF282E
:10081000E66EDF50EA6A980FE96E000EEA22E552B2
:10082000E750EF6EDF50EA6A980FE96E000EEA2299
:10083000EF50E66EE66A800EE66E000EE66E97EC0E
:1008400013F0E552E552E552E552DF2AD7D719D029
:10085000DF6A040EDF5C15E2DF50EA6A980FE96E8A
:10086000000EEA22EF50E66EE66A800EE66E000E9B
:10087000E66E97EC13F0E552E552E552E552DF2AB9
:10088000E8D762DC11D0C3510FE1AAEC08F00001F7
:10089000C56B48EC09F0000902E10FDD05D072ECF0
:1008A0000EF00001020EC36F020EE15C02E2E16A8B
:1008B000E552E16EE552E7CFD9FF1200D9CFE6FF4E
:1008C000E1CFD9FF0A0EE126020EDB6A030EDB6AD6
:1008D000040EDB6A050EDB6A0001C30501E0B6D336
:1008E000CB1D01E1CC1D01E1B1D3CBC0E9FFCCC0F0
:1008F000EAFFD890E936EA369D0EE926000EEA2294
:10090000EECF0BF0EFCF0CF0070E0B1801E10C50FF
:100910003EE0060E0B1801E10C5033E0050E0B18FB
:1009200001E10C5028E0040E0B1801E10C501DE011
:10093000030E0B1801E10C5012E0020E0B1801E13E
:100940000C5007E0010E0B1801E10C5001E025D01E
:100950007DD3020EF36E040EF3CFDBFF1ED0010E2B
:10096000F36E040EF3CFDBFF18D0010EF36E040E0E
:10097000F3CFDBFF12D0010EF36E040EF3CFDBFFDB
:100980000CD0010EF36E040EF3CFDBFF06D0010E88
:10099000F36E040EF3CFDBFF00D0DF6A040EDF5CE2
:1009A0002CE2DF50EA6A980FE96E000EEA22EF505F
:1009B000E66ED950060F0B6EDACF0CF0DF500F0148
:1009C0000B24E96E000E0C20EA6EE552E750EF6E44
:1009D000DF50EA6A980FE96E000EEA22EF50E66EE9
:1009E000E66A800EE66E000EE66E80EC14F0E552CC
:1009F000E552E552E552DF2AD1D7040EDB0401E0CF
:100A0000DED0DF6A040EDF5C01E3D8D0DF50EA6A93
:100A1000980FE96E000EEA22EFCF0BF0110E0001E5
:100A20009C5D0B5C0DE10F0E9C25E66EDF50EA6AC3
:100A3000980FE96E000EEA22E552E750EF6EBCD047
:100A4000DF50EA6A980FE96E000EEA22EFCF0BF052
:100A50009C050B5C0DE1100E9C25E66EDF50EA6AEA
:100A6000980FE96E000EEA22E552E750EF6EA4D02F
:100A7000DF50EA6A980FE96E000EEA22EFCF0BF022
:100A80000F0E9C250B5C0DE1110E9C25E66EDF50D0
:100A9000EA6A980FE96E000EEA22E552E750EF6E1F
:100AA0008BD0DF50EA6A980FE96E000EEA22EFCF92
:100AB0000BF0100E9C5D0B5C0CE19C05E66EDF50AC
:100AC000EA6A980FE96E000EEA22E552E750EF6EEF
:100AD00073D0DF50EA6A980FE96E000EEA22EF50F9
:100AE0009C5D09E1DF50EA6A980FE96E000EEA2288
:100AF0009CC0EFFF61D0DF50EA6A980FE96E000EEC
:100B0000EA22EFCF0BF0100E9C250B5C0CE19C2928
:100B1000E66EDF50EA6A980FE96E000EEA22E552AF
:100B2000E750EF6E49D0DF50EA6A980FE96E000E89
:100B3000EA22EFCF0BF00F0E9C5D0B5C0DE1110E66
:100B40009C5DE66EDF50EA6A980FE96E000EEA22BD
:100B5000E552E750EF6E30D0DF50EA6A980FE96E49
:100B6000000EEA22EFCF0BF09C290B5C0DE1100E7A
:100B70009C5DE66EDF50EA6A980FE96E000EEA228D
:100B8000E552E750EF6E18D0DF50EA6A980FE96E31
:100B9000000EEA22EFCF0BF0110E9C250B5C0CE14E
:100BA0000F0E9C5DE66EDF50EA6A980FE96E000E4C
:100BB000EA22E552E750EF6EDF2A24D7D7D1040EA0
:100BC000DB50020801E0D2D1DF6A040EDF5C33E2C1
:100BD000DF50EA6A980FE96E000EEA22EF50F00B40
:100BE00003E1020EDB2A25D0DF50EA6A980FE96E96
:100BF000000EEA22EF50F00B0B6E800E0B5C03E34D
:100C0000020EDB2A16D0DF50EA6A980FE96E000E5A
:100C1000EA22EF500F0B0B6E0E0E0B5C0AE3050E73
:100C20000B6E020EDBCFE7FF0B50E726020EE7CF7D
:100C3000DBFFDF2ACAD7020EDB50040866E1DF6A59
:100C4000040EDF5C52E2DF50EA6A980FE96E000E94
:100C5000EA22EF50F00B10E1100E0B6EDF50EA6A43
:100C6000980FE96E000EEA220B50EF26010EF36E8C
:100C7000030EF3CFDBFF37D0DF50EA6A980FE96E3F
:100C8000000EEA22EF50F00B900810E1100E0B6EF0
:100C9000DF50EA6A980FE96E000EEA220B50EF5E11
:100CA000020EF36E030EF3CFDBFF1DD0DF50EA6AB6
:100CB000980FE96E000EEA22EF50F00B800813E166
:100CC000F00E00019C1580080EE1100E0B6EDF5037
:100CD000EA6A980FE96E000EEA220B50EF5E030EEF
:100CE000F36EF3CFDBFFDF2AABD7030EDB50020836
:100CF00004E1100E00019C5F07D0030EDB500308D7
:100D000003E1100E00019C5F09D0050EF36E020E88
:100D1000DBCFF4FFF350F45C01E398D1DF6A040EFB
:100D2000DF5C01E323D1DF50EA6A980FE96E000E21
:100D3000EA22EFCF0BF000019C050B5C0DE1200EC9
:100D40009C25E66EDF50EA6A980FE96E000EEA22F3
:100D5000E552E750EF6E08D1DF50EA6A980FE96E6E
:100D6000000EEA22EFCF0BF00F0E9C250B5C0DE17D
:100D7000210E9C25E66EDF50EA6A980FE96E000EA0
:100D8000EA22E552E750EF6EEFD0DF50EA6A980FA3
:100D9000E96E000EEA22EFCF0BF0100E9C5D0B5CAB
:100DA0000DE10F0E9C25E66EDF50EA6A980FE96EA2
:100DB000000EEA22E552E750EF6ED6D0DF50EA6A25
:100DC000980FE96E000EEA22EF509C5D0DE1100EC7
:100DD0009C25E66EDF50EA6A980FE96E000EEA2263
:100DE000E552E750EF6EC0D0DF50EA6A980FE96E27
:100DF000000EEA22EFCF0BF0100E9C250B5C0DE1EC
:100E0000110E9C25E66EDF50EA6A980FE96E000E1F
:100E1000EA22E552E750EF6EA7D0DF50EA6A980F5A
:100E2000E96E000EEA22EFCF0BF0200E9C250B5C42
:100E30000DE1120E9C25E66EDF50EA6A980FE96E0E
:100E4000000EEA22E552E750EF6E8ED0DF50EA6ADC
:100E5000980FE96E000EEA22EFCF0BF00F0E9C5DAB
:100E60000B5C0CE19C05E66EDF50EA6A980FE96EB8
:100E7000000EEA22E552E750EF6E76D0DF50EA6AC4
:100E8000980FE96E000EEA22EFCF0BF09C290B5C65
:100E900009E1DF50EA6A980FE96E000EEA229CC071
:100EA000EFFF62D0DF50EA6A980FE96E000EEA2287
:100EB000EFCF0BF0110E9C250B5C0CE19C29E66E2C
:100EC000DF50EA6A980FE96E000EEA22E552E75019
:100ED000EF6E4AD0DF50EA6A980FE96E000EEA2200
:100EE000EFCF0BF0210E9C250B5C0DE1020E9C2533
:100EF000E66EDF50EA6A980FE96E000EEA22E552CC
:100F0000E750EF6E31D0DF50EA6A980FE96E000EBD
:100F1000EA22EFCF0BF0020E9C250B5C0DE1100EC8
:100F20009C5DE66EDF50EA6A980FE96E000EEA22D9
:100F3000E552E750EF6E18D0DF50EA6A980FE96E7D
:100F4000000EEA22EFCF0BF0120E9C250B5C0CE199
:100F50000F0E9C5DE66EDF50EA6A980FE96E000E98
:100F6000EA22E552E750EF6EDF2AD9D6DF6A040E97
:100F7000DF5C1DE2DF50EA6A980FE96E000EEA229C
:100F8000EF50E66EE66A800EE66E000EE66E05EC49
:100F900015F0E552E552E552E552010806E1010E71
:100FA000F36E050EF3CFDBFF02D0DF2AE0D7050E8C
:100FB000DB0431E1DF6A040EDF5C2CE2D950060F5E
:100FC0000B6EDACF0CF0DF500F010B24E96E000E30
:100FD0000C20EA6EEF50E66EDF50EA6A980FE96E79
:100FE000000EEA22E552E750EF6EDF50EA6A980FF2
:100FF000E96E000EEA22EF50E66EE66A800EE66EBB
:10100000000EE66E97EC13F0E552E552E552E5521C
:10101000DF2AD1D719D0DF6A040EDF5C15E2DF507A
:10102000EA6A980FE96E000EEA22EF50E66EE66A71
:10103000800EE66E000EE66E97EC13F0E552E55278
:10104000E552E552DF2AE8D7A4EC00F00A0EE15C95
:1010500002E2E16AE552E16EE552E7CFD9FF120004
:10106000D9CFE6FFE1CFD9FF020EE1260001C5513D
:1010700066E1C30564E1CB1D01E1CC1D60E0010E1A
:10108000C56FDB6A040EF36E010EDBCFF4FFF35085
:10109000F45C17E2010EDB50EA6A980FE96E000E6D
:1010A000EA22EF50E66EE66A800EE66E000EE66E0D
:1010B00080EC14F0E552E552E552E552010EDB2AD0
:1010C000E1D7FF0E0001C65D11E1CBC0E9FFCCC046
:1010D000EAFFD890E936EA369D0EE926000EEA22AC
:1010E000EFCFC6F0C36B5DEC01F026D0CBC0E9FFBB
:1010F000CCC0EAFFD890E936EA369D0EE926000E0C
:10110000EA22EFCFDFFFC651E66ECBC0E9FFCCC0CD
:10111000EAFFD890E936EA369D0EE926000EEA226B
:10112000E552E750EE6EED6ADFCFC6F0C907000E5C
:10113000CA5BC36B5DEC01F09EEC0CF001D000D0FB
:10114000020EE15C02E2E16AE552E16EE552E7CFB0
:10115000D9FF1200D9CFE6FFE1CFD9FF060EE12675
:10116000030EDB6A0F0EF36E040EF3CFDBFF050EEA
:10117000DB6A020EDB6A040EF36E020EDBCFF4FFB5
:10118000F350F45C3AE2020EDB50EA6A980FE96E23
:10119000000EEA22EF500F0B0B6E040EDB500B5CBF
:1011A0000DE2020EDB50EA6A980FE96E000EEA22A9
:1011B000EF500F0BE76E040EE7CFDBFF020EDB50A4
:1011C000EA6A980FE96E000EEA22EF500F0B0B6EE1
:1011D000050EDB50D8800B540DE2020EDB50EA6A9C
:1011E000980FE96E000EEA22EF500F0BE76E050E26
:1011F000E7CFDBFF020EDB2ABED7050EDB50E76E22
:10120000010EE7CFDBFF040EDB50F36E010EDBCFE8
:10121000F4FFF350F45C32E3010EF36E030EF3CFF0
:10122000DBFFDF6A0A0EDF5C1BE2010EDBCFE6FFAD
:10123000100EDF02F350E552E724E66EE66A800EF8
:10124000E66E000EE66E05EC15F0E552E552E5524D
:10125000E552000903E1030EDB6A02D0DF2AE2D780
:10126000030EDB0408E1010EDBCFF3FFDB2AF350B2
:10127000E66E2CD8E552010EDB06C5D7060EE15C02
:1012800002E2E16AE552E16EE552E7CFD9FF1200D2
:10129000D9CFE6FFE1CFD9FFE652DF6A040EDF5C6B
:1012A0000EE2DF50EA6A980FE96E000EEA22EF5074
:1012B0000F0B030802E3010E04D0DF2AEFD7000E64
:1012C00000D0E552E552E7CFD9FF1200D9CFE6FFB3
:1012D000E1CFD9FF020EE1260001C36BDF6A0A0EDF
:1012E000DF5C1DE2FE0EDBCFE6FF100EDF02F350E7
:1012F000E552E724E66EE66A800EE66E000EE66EC4
:1013000080EC14F0E552E552E552E552050EE66E2A
:1013100067EC19F0E552A4EC00F0DF2AE0D7DF6AB1
:101320000A0EDF5C51E2FE0EDB50E76E010EE7CFE6
:10133000DBFF0F0EF36E010EDBCFF4FFF350F45C16
:1013400041E2100EDF02F3CF0BF0010EDB280B247D
:10135000E66EE66A800EE66E000EE66E05EC15F0AF
:10136000E552E552E552E552010815E1010EDBCFE9
:10137000E6FF100EDF02F350E552E724E66EE66A60
:10138000800EE66E000EE66E97EC13F0E552E55225
:10139000E552E55214D0010EDBCFE6FF100EDF025E
:1013A000F350E552E724E66EE66A800EE66E000E24
:1013B000E66E80EC14F0E552E552E552E552010E7E
:1013C000DB2AB7D7DF2AACD7DF6A0A0EDF5C1FE261
:1013D000EA6ADF34FE0BEA36E96E800EE926000E7B
:1013E000EA22EECF0BF0EFCF0CF0D8900B360C3694
:1013F000EA6ADF34FE0BEA36E96E800EE926000E5B
:10140000EA220BC0EEFF0CC0EDFFDF2ADED7A4EC12
:1014100000F00001C72B000EC823020EE15C02E2BF
:10142000E16AE552E16EE552E7CFD9FF1200D9CF6C
:10143000E6FFE1CFD9FF040EE126020EDB6A070EBC
:10144000F36E020EDBCFF4FFF350F45C18E2020EF1
:10145000DB28E66E020E0C6ADB34FE0B0C360B6EDC
:10146000FD0EDB500B24E96EFE0EDB500C20EA6E05
:10147000E552E750EE6EED6A020EDB2AE0D7020E6F
:10148000DB6A070EF36E020EDBCFF4FFF350F45C61
:101490005CE2F5EC18F0F3CF0BF0F4CF0CF00BC0DE
:1014A000E6FF0CC0E6FF7AEC11F0E552E552030EC0
:1014B000F3CFDBFF020E0C6ADB34FE0B0C360B6E37
:1014C000FD0EDB500B24E96EFE0EDB500C20EA6EA5
:1014D000EECFDEFFEDCFDDFF030E106ADB34FE0B37
:1014E00010360F6EFD0EDB500F24E96EFE0EDB5042
:1014F0001020EA6EEECF0DF0EFCF0EF0020E0C6A68
:10150000DB34FE0B0C360B6EFD0EDB500B24E96E4C
:10151000FE0EDB500C20EA6E0DC0EEFF0EC0EDFF9C
:10152000030E0C6ADB34FE0B0C360B6EFD0EDB502B
:101530000B24E96EFE0EDB500C20EA6EDECFEEFFD0
:10154000DDCFEDFF020EDB2A9CD7040EE15C02E248
:10155000E16AE552E16EE552E7CFD9FF1200D9CF3B
:10156000E6FFE1CFD9FF040EE126DF6A020EDF5C61
:101570000AE2DF50EA6A940FE96E000EEA22200EBA
:10158000EF6EDF2AF3D70001CA3504E2C95106081D
:10159000000ECA550FE3C9C0E9FFCAC0EAFFD890E0
:1015A000E936EA369D0EE926000EEA22010EEFCF5B
:1015B000DBFF03D0010EABC0DBFFDB50070A01E10C
:1015C0004FD1010A01E117D1030A01E1DFD0010A7D
:1015D00001E1A7D0070A70E0010A39E0030A02E03E
:1015E000BEDF73D1020EE66EE66A940EE66E000E62
:1015F000E66E10EC14F0E552E552E552E552030EAA
:10160000E66EE66A940EE66E000EE66E10EC14F0DE
:10161000E552E552E552E5520A0EE66EE66A940E90
:10162000E66E000EE66E10EC14F0E552E552E5525F
:10163000E5520B0EE66EE66A940EE66E000EE66E5E
:1016400010EC14F0E552E552E552E5523ED1010EA0
:10165000E66EE66A940EE66E000EE66E10EC14F08E
:10166000E552E552E552E552020EE66EE66A940E48
:10167000E66E000EE66E10EC14F0E552E552E5520F
:10168000E552030EE66EE66A940EE66E000EE66E16
:1016900010EC14F0E552E552E552E552040EE66E08
:1016A000E66A940EE66E000EE66E10EC14F0E5525B
:1016B000E552E552E55209D1010EE66EE66A940E56
:1016C000E66E000EE66E10EC14F0E552E552E552BF
:1016D000E552020EE66EE66A940EE66E000EE66EC7
:1016E00010EC14F0E552E552E552E5520A0EE66EB2
:1016F000E66A940EE66E000EE66E10EC14F0E5520B
:10170000E552E552E5520B0EE66EE66A940EE66E81
:10171000000EE66E10EC14F0E552E552E552E5528B
:10172000D4D0020EE66EE66A940EE66E000EE66E09
:1017300010EC14F0E552E552E552E552030EE66E68
:10174000E66A940EE66E000EE66E10EC14F0E552BA
:10175000E552E552E552090EE66EE66A940EE66E33
:10176000000EE66E10EC14F0E552E552E552E5523B
:101770000A0EE66EE66A940EE66E000EE66E10EC59
:1017800014F0E552E552E552E5529FD0010EE66EA7
:10179000E66A940EE66E000EE66E10EC14F0E5526A
:1017A000E552E552E552020EE66EE66A940EE66EEA
:1017B000000EE66E10EC14F0E552E552E552E552EB
:1017C000030EE66EE66A940EE66E000EE66E10EC10
:1017D00014F0E552E552E552E5520B0EE66EE66A6C
:1017E000940EE66E000EE66E10EC14F0E552E55233
:1017F000E552E5526AD0030EE66EE66A940EE66E96
:10180000000EE66E10EC14F0E552E552E552E5529A
:10181000090EE66EE66A940EE66E000EE66E10ECB9
:1018200014F0E552E552E552E5520A0EE66EE66A1C
:10183000940EE66E000EE66E10EC14F0E552E552E2
:10184000E552E5520B0EE66EE66A940EE66E000E69
:10185000E66E10EC14F0E552E552E552E55235D053
:10186000020EE66EE66A940EE66E000EE66E10EC70
:1018700014F0E552E552E552E552090EE66EE66ACD
:10188000940EE66E000EE66E10EC14F0E552E55292
:10189000E552E5520A0EE66EE66A940EE66E000E1A
:1018A000E66E10EC14F0E552E552E552E5520B0EEF
:1018B000E66EE66A940EE66E000EE66E10EC14F02C
:1018C000E552E552E552E55200D0020EF36E030EEA
:1018D000F3CFDBFFDF6A020EDF5C1EE2DF50EA6A55
:1018E000940FE96E000EEA22020EEFCFDBFFDBCF92
:1018F000E6FF030EDBCFE6FFE40EE66E51EC13F0DD
:10190000E552E552E552030EDB50FE0FE76E030E83
:10191000E7CFDBFFDF2ADFD7810EE66EE40EE66E4F
:1019200037EC13F0E552E552040EE15C02E2E16AA5
:10193000E552E16EE552E7CFD9FF1200D9CFE6FFBD
:10194000E1CFD9FF030EE126DF6A020EDF5C0AE277
:10195000DF50EA6A960FE96E000EEA22200EEF6E63
:10196000DF2AF3D70001C651070A01E14ED1010A6F
:1019700001E116D1030A01E1DED0010A01E1A6D09E
:10198000070A6FE0010A38E0030A01E073D1020E92
:10199000E66EE66A960EE66E000EE66E10EC14F049
:1019A000E552E552E552E552030EE66EE66A960E02
:1019B000E66E000EE66E10EC14F0E552E552E552CC
:1019C000E5520A0EE66EE66A960EE66E000EE66ECA
:1019D00010EC14F0E552E552E552E5520B0EE66EBE
:1019E000E66A960EE66E000EE66E10EC14F0E55216
:1019F000E552E552E5523ED1010EE66EE66A960EDC
:101A0000E66E000EE66E10EC14F0E552E552E5527B
:101A1000E552020EE66EE66A960EE66E000EE66E81
:101A200010EC14F0E552E552E552E552030EE66E75
:101A3000E66A960EE66E000EE66E10EC14F0E552C5
:101A4000E552E552E552040EE66EE66A960EE66E43
:101A5000000EE66E10EC14F0E552E552E552E55248
:101A600009D1010EE66EE66A960EE66E000EE66E8F
:101A700010EC14F0E552E552E552E552020EE66E26
:101A8000E66A960EE66E000EE66E10EC14F0E55275
:101A9000E552E552E5520A0EE66EE66A960EE66EED
:101AA000000EE66E10EC14F0E552E552E552E552F8
:101AB0000B0EE66EE66A960EE66E000EE66E10EC13
:101AC00014F0E552E552E552E552D4D0020EE66E2E
:101AD000E66A960EE66E000EE66E10EC14F0E55225
:101AE000E552E552E552030EE66EE66A960EE66EA4
:101AF000000EE66E10EC14F0E552E552E552E552A8
:101B0000090EE66EE66A960EE66E000EE66E10ECC4
:101B100014F0E552E552E552E5520A0EE66EE66A29
:101B2000960EE66E000EE66E10EC14F0E552E552ED
:101B3000E552E5529FD0010EE66EE66A960EE66E1D
:101B4000000EE66E10EC14F0E552E552E552E55257
:101B5000020EE66EE66A960EE66E000EE66E10EC7B
:101B600014F0E552E552E552E552030EE66EE66AE0
:101B7000960EE66E000EE66E10EC14F0E552E5529D
:101B8000E552E5520B0EE66EE66A960EE66E000E24
:101B9000E66E10EC14F0E552E552E552E5526AD0DB
:101BA000030EE66EE66A960EE66E000EE66E10EC2A
:101BB00014F0E552E552E552E552090EE66EE66A8A
:101BC000960EE66E000EE66E10EC14F0E552E5524D
:101BD000E552E5520A0EE66EE66A960EE66E000ED5
:101BE000E66E10EC14F0E552E552E552E5520B0EAC
:101BF000E66EE66A960EE66E000EE66E10EC14F0E7
:101C0000E552E552E552E55235D0020EE66EE66A3F
:101C1000960EE66E000EE66E10EC14F0E552E552FC
:101C2000E552E552090EE66EE66A960EE66E000E85
:101C3000E66E10EC14F0E552E552E552E5520A0E5C
:101C4000E66EE66A960EE66E000EE66E10EC14F096
:101C5000E552E552E552E5520B0EE66EE66A960E47
:101C6000E66E000EE66E10EC14F0E552E552E55219
:101C7000E55200D00E0EF36E020EF3CFDBFFDF6AEB
:101C8000DF5C1EE2DF50EA6A960FE96E000EEA2280
:101C9000010EEFCFDBFFDBCFE6FF020EDBCFE6FF6F
:101CA000E80EE66E51EC13F0E552E552E552020EF5
:101CB000DB50FE0FE76E020EE7CFDBFFDF2AE0D737
:101CC000810EE66EE80EE66E37EC13F0E552E55253
:101CD000030EE15C02E2E16AE552E16EE552E7CF14
:101CE000D9FF1200D9CFE6FFE1CFD9FF030EE126DD
:101CF000010EDB6A100EF36E010EDBCFF4FFF35022
:101D0000F45C24E2DF6A0A0EDF5C1DE2010EDBCF29
:101D1000E6FF100EDF02F350E552E724E66EE66AB6
:101D2000800EE66E000EE66E80EC14F0E552E55291
:101D3000E552E552010EE66E67EC19F0E552A4ECAF
:101D400000F0DF2AE0D7010EDB2AD4D7DE52030EE3
:101D5000DD6E020EDF6EDF50070816E3010EDBCFEB
:101D6000E6FF100EDF02F350E552E724E66EE66A66
:101D7000800EE66E000EE66E97EC13F0E552E5522B
:101D8000E552E552DF2AE7D7DE52040EDD6E010E82
:101D9000DF6EDF50020816E3010EDBCFE6FF100E08
:101DA000DF02F350E552E724E66EE66A800EE66E47
:101DB000000EE66E97EC13F0E552E552E552E5525F
:101DC000DF2AE7D7070EDF6EDF50080816E3010EA3
:101DD000DBCFE6FF100EDF02F350E552E724E66E9C
:101DE000E66A800EE66E000EE66E97EC13F0E552A2
:101DF000E552E552E552DF2AE7D7DE52050EDD6EE9
:101E0000DF6ADF50010816E3010EDBCFE6FF100E9C
:101E1000DF02F350E552E724E66EE66A800EE66ED6
:101E2000000EE66E97EC13F0E552E552E552E552EE
:101E3000DF2AE7D7080EDF6EDF50090816E3010E30
:101E4000DBCFE6FF100EDF02F350E552E724E66E2B
:101E5000E66A800EE66E000EE66E97EC13F0E55231
:101E6000E552E552E552DF2AE7D7DE52060EDD6E77
:101E7000010EDB5009082EE3DF6A010EDBCFE6FF1F
:101E8000100EDF02F350E552E724E66EE66A800E9C
:101E9000E66E000EE66E97EC13F0E552E552E55261
:101EA000E552090EDF6E010EDBCFE6FF100EDF02FA
:101EB000F350E552E724E66EE66A800EE66E000E09
:101EC000E66E97EC13F0E552E552E552E552010E4D
:101ED000DB2ACED7DE52070EDD6E010EDB5008087E
:101EE0005AE3010EDF6EDBCFE6FF100EDF02F35088
:101EF000E552E724E66EE66A800EE66E000EE66EB8
:101F000097EC13F0E552E552E552E552020EDF6E12
:101F1000010EDBCFE6FF100EDF02F350E552E7249F
:101F2000E66EE66A800EE66E000EE66E97EC13F043
:101F3000E552E552E552E552060EDF6E010EDBCFAB
:101F4000E6FF100EDF02F350E552E724E66EE66A84
:101F5000800EE66E000EE66E97EC13F0E552E55249
:101F6000E552E552070EDF6E010EDBCFE6FF100EE5
:101F7000DF02F350E552E724E66EE66A800EE66E75
:101F8000000EE66E97EC13F0E552E552E552E5528D
:101F9000010EDB2AA2D7480EE66EE66A800EE66ED8
:101FA000000EE66E97EC13F0E552E552E552E5526D
:101FB000DE520A0EDD6EDF6ADF50010816E3010E05
:101FC000DBCFE6FF100EDF02F350E552E724E66EAA
:101FD000E66A800EE66E000EE66E97EC13F0E552B0
:101FE000E552E552E552DF2AE7D7080EDF6EDF50F3
:101FF000090816E3010EDBCFE6FF100EDF02F350F7
:10200000E552E724E66EE66A800EE66E000EE66EA6
:1020100097EC13F0E552E552E552E552DF2AE7D797
:102020001B0EE66EE66A800EE66E000EE66E97EC1C
:1020300013F0E552E552E552E5523B0EE66EE66AD4
:10204000800EE66E000EE66E97EC13F0E552E55258
:10205000E552E5525B0EE66EE66A800EE66E000E15
:10206000E66E97EC13F0E552E552E552E5527B0E31
:10207000E66EE66A800EE66E000EE66E97EC13F0F2
:10208000E552E552E552E5528B0EE66EE66A800EA9
:10209000E66E000EE66E97EC13F0E552E552E5525F
:1020A000E552DE520C0EDD6E010EDF6EDF500708CA
:1020B00016E3010EDBCFE6FF100EDF02F350E55210
:1020C000E724E66EE66A800EE66E000EE66E97EC9A
:1020D00013F0E552E552E552E552DF2AE7D7A4ECCA
:1020E00000F0010EDB6ADB500A0857E3DF6A0A0ED4
:1020F000DF5C1FE2EA6ADF34FE0BEA36E96E800E2F
:10210000E926000EEA22EECF0BF0EFCF0CF0D890CC
:102110000B360C36EA6ADF34FE0BEA36E96E800EC7
:10212000E926000EEA220BC0EEFF0CC0EDFFDF2A0D
:10213000DED7A4EC00F02C0EE66E67EC19F0E55249
:10214000DF6A0A0EDF5C1FE2EA6ADF34FE0BEA3662
:10215000E96E800EE926000EEA22EECF0BF0EFCFFB
:102160000CF0D8900C320B32EA6ADF34FE0BEA3600
:10217000E96E800EE926000EEA220BC0EEFF0CC0CD
:10218000EDFFDF2ADED7A4EC00F02C0EE66E67EC44
:1021900019F0E552010EDB2AA6D70001010EC46F2B
:1021A000030EE15C02E2E16AE552E16EE552E7CF3F
:1021B000D9FF1200C7C0F3FFC8C0F4FF00D012005F
:1021C0000001C45100D012000001C36BC46BC76B87
:1021D000C86BC56BC669C969CA69CB69CC6912008D
:1021E000D9CFE6FFE1CFD9FF020EE126DE6ADD6A34
:1021F000FD0EDBCF0BF0FE0EDBCF0CF0FB0EDBCFCA
:102200000DF0FC0EDBCF0EF00C500E18E8AE02D035
:102210000E3404D00D500B5C0E500C5819E3FD0E1B
:10222000DBCF0DF0FE0EDBCF0EF0FB0EDB500D5CB6
:102230000B6EFC0EDB500E580C6EFD0E0BC0DBFF60
:10224000FE0E0CC0DBFFDF2A010E01E3DB2AD0D734
:10225000DECF0BF0DDCF0CF00BC0F3FF0CC0F4FFB2
:10226000020EE15C03E200D0E16AE552E16EE55264
:10227000E7CFD9FF1200D9CFE6FFE1CFD9FFFD0E9E
:10228000DBCF0BF0FE0EDBCF0CF0FB0EDBCF0DF047
:10229000FC0EDBCF0EF00C500E18E8AE02D00E3460
:1022A00004D00D500B5C0E500C5815E3FD0EDBCF27
:1022B0000DF0FE0EDBCF0EF0FB0EDB500D5C0B6E57
:1022C000FC0EDB500E580C6EFD0E0BC0DBFFFE0E3D
:1022D0000CC0DBFFD4D7FD0EDBCF0BF0FE0EDBCF47
:1022E0000CF00BC0F3FF0CC0F4FF00D0E552E7CFB9
:1022F000D9FF1200D9CFE6FFE1CFD9FFFD0EDBCF2A
:102300000BF0FE0EDBCF0CF0070E0B5C000E0C5832
:1023100011E3FD0EDBCF0BF0FE0EDBCF0CF0070E52
:102320000B5E000E0C5AFD0E0BC0DBFFFE0E0CC048
:10233000DBFFE4D7FD0EDBCF0BF0FE0EDBCF0CF0A6
:102340000BC0F3FF0CC0F4FF00D0E552E7CFD9FF7C
:102350001200D9CFE6FFE1CFD9FFFD0EDBCF0BF0A6
:10236000FE0EDBCF0CF0D8900C5004E6080E0B5C90
:10237000000E0C5811E3FD0EDBCF0BF0FE0EDBCF91
:102380000CF0080E0B5E000E0C5AFD0E0BC0DBFFAE
:10239000FE0E0CC0DBFFE1D7FD0EDBCF0BF0FE0E17
:1023A000DBCF0CF00BC0F3FF0CC0F4FF00D0E55204
:1023B000E7CFD9FF1200D9CFE6FFE1CFD9FFFD0E5D
:1023C000DBCF0BF0FE0EDBCF0CF0D8900C5004E608
:1023D0000A0E0B5C000E0C5811E3FD0EDBCF0BF068
:1023E000FE0EDBCF0CF00A0E0B5E000E0C5AFD0E3B
:1023F0000BC0DBFFFE0E0CC0DBFFE1D7FD0EDBCF19
:102400000BF0FE0EDBCF0CF00BC0F3FF0CC0F4FFA3
:1024100000D0E552E7CFD9FF1200D9CFE6FFE1CFD8
:10242000D9FFFD0EDBCF0BF0FE0EDBCF0CF0D8900A
:102430000C5004E6100E0B5C000E0C5811E3FD0E60
:10244000DBCF0BF0FE0EDBCF0CF0100E0B5E000EA0
:102450000C5AFD0E0BC0DBFFFE0E0CC0DBFFE1D7FC
:10246000FD0EDBCF0BF0FE0EDBCF0CF00BC0F3FF4D
:102470000CC0F4FF00D0E552E7CFD9FF1200D9CF4E
:10248000E6FFE1CFD9FF020EE126DE6ADD6AFD0E2E
:10249000DBCF0BF0FE0EDBCF0CF0D8900C5004E637
:1024A000080E0B5C000E0C5815E3FD0EDBCF0BF095
:1024B000FE0EDBCF0CF0080E0B5E000E0C5AFD0E6C
:1024C0000BC0DBFFFE0E0CC0DBFFDF2A010E01E3B9
:1024D000DB2ADDD7DECF0BF0DDCF0CF00BC0F3FF36
:1024E0000CC0F4FF020EE15C03E200D0E16AE552A9
:1024F000E16EE552E7CFD9FF1200D9CFE6FFE1CF79
:10250000D9FF020EE126DE6ADD6AFD0EDBCF0BF09D
:10251000FE0EDBCF0CF0D8900C5004E60A0E0B5CDC
:10252000000E0C5815E3FD0EDBCF0BF0FE0EDBCFDB
:102530000CF00A0E0B5E000E0C5AFD0E0BC0DBFFFA
:10254000FE0E0CC0DBFFDF2A010E01E3DB2ADDD724
:10255000DECF0BF0DDCF0CF00BC0F3FF0CC0F4FFAF
:10256000020EE15C03E200D0E16AE552E16EE55261
:10257000E7CFD9FF1200D9CFE6FFE1CFD9FF020E96
:10258000E126DE6ADD6AFD0EDBCF0BF0FE0EDBCF4F
:102590000CF0D8900C5004E6100E0B5C000E0C589A
:1025A00015E3FD0EDBCF0BF0FE0EDBCF0CF0100EB3
:1025B0000B5E000E0C5AFD0E0BC0DBFFFE0E0CC0B6
:1025C000DBFFDF2A010E01E3DB2ADDD7DECF0BF0D4
:1025D000DDCF0CF00BC0F3FF0CC0F4FF020EE15C8A
:1025E00003E200D0E16AE552E16EE552E7CFD9FFA0
:1025F0001200D9CFE6FFE1CFD9FF020EE126DE6A55
:10260000DD6AFD0EDBCF0BF0FE0EDBCF0CF0D890B9
:102610000C5004E6640E0B5C000E0C5815E3FD0E26
:10262000DBCF0BF0FE0EDBCF0CF0640E0B5E000E6A
:102630000C5AFD0E0BC0DBFFFE0E0CC0DBFFDF2AC9
:10264000010E01E3DB2ADDD7DECF0BF0DDCF0CF08E
:102650000BC0F3FF0CC0F4FF020EE15C03E200D0FC
:10266000E16AE552E16EE552E7CFD9FF1200D9CF1A
:10267000E6FFE1CFD9FFC580C5B0FED7FE0EDBCFA8
:10268000E6FFBCEC18F0E552FD0EDBCFE6FFBCEC3C
:1026900018F0E552C584C5B4FED7E552E7CFD9FF9F
:1026A0001200D9CFE6FFE1CFD9FFC580C5B0FED774
:1026B000FE0EDBCFE6FFBCEC18F0E552FD0EDBCFE3
:1026C000E6FFBCEC18F0E552FC0EDBCFE6FFBCECFD
:1026D00018F0E552C584C5B4FED7E552E7CFD9FF5F
:1026E0001200D9CFE6FFE1CFD9FFC580C5B0FED734
:1026F000FE0EDBCFE6FFBCEC18F0E552FD0EDBCFA3
:10270000E6FFBCEC18F0E552FC0EDBCFE6FFBCECBC
:1027100018F0E552FB0EDBCFE6FFBCEC18F0E552FB
:10272000C584C5B4FED7E552E7CFD9FF1200D9CF93
:10273000E6FFE1CFD9FF060EE126FB0EDBCFE6FF79
:10274000FC0EDBCFE6FF17DFE552E552F3CFDEFFED
:10275000F4CFDDFFFB0EDBCFE6FFFC0EDBCFE6FFA9
:102760005CDEE552E552020EF3CFDBFF030EF4CF41
:10277000DBFF010EF36E040EF3CFDBFF050EDB6A09
:10278000040EDBCF0DF0050EDBCF0EF0020EDB509A
:102790000DC00BF00EC00CF005E0D8900B360C36D7
:1027A000E804FBE1040E0BC0DBFF050E0CC0DBFFF1
:1027B000040EDBCF11F0050EDBCF12F0DECF0FF0F1
:1027C000DDCF10F0D8900F361036FD0EDB500F2401
:1027D000E96EFE0EDB501020EA6E1150EE100D6E09
:1027E0001250EE100E6EDECF0BF0DDCF0CF0D89055
:1027F0000B360C36FD0EDB500B24E96EFE0EDB5063
:102800000C20EA6E0DC0EEFF0EC0EDFF060EE15C7F
:1028100002E2E16AE552E16EE552E7CFD9FF12002C
:10282000D9CFE6FFE1CFD9FF060EE126FB0EDBCFC5
:10283000E6FFFC0EDBCFE6FF22DEE552E552F3CFEA
:10284000DEFFF4CFDDFFFB0EDBCFE6FFFC0EDBCFC0
:10285000E6FF7FDDE552E552020EF3CFDBFF030E0C
:10286000F4CFDBFF010EF36E040EF3CFDBFF050E9A
:10287000DB6A040EDBCF0DF0050EDBCF0EF0020E8F
:10288000DB500DC00BF00EC00CF005E0D8900B36FD
:102890000C36E804FBE1040E0BC0DBFF050E0CC098
:1028A000DBFFFD0EDBCF11F0FE0EDBCF12F0DE50B2
:1028B0001124E96EDD501220EA6EEF500F6E106A9F
:1028C000040EDB500F100D6E050EDB5010100E6E57
:1028D000FD0EDBCF0BF0FE0EDBCF0CF0DE500B2439
:1028E000E96EDD500C20EA6E0DC0EFFF060EE15CD4
:1028F00002E2E16AE552E16EE552E7CFD9FF12004C
:10290000D9CFE6FFE1CFD9FF060EE126FB0EDBCFE4
:10291000E6FFFC0EDBCFE6FF2EDEE552E552F3CFFD
:10292000DEFFF4CFDDFFFB0EDBCFE6FFFC0EDBCFDF
:10293000E6FF73DDE552E552020EF3CFDBFF030E37
:10294000F4CFDBFF010EF36E040EF3CFDBFF050EB9
:10295000DB6A040EDBCF0DF0050EDBCF0EF0020EAE
:10296000DB500DC00BF00EC00CF005E0D8900B361C
:102970000C36E804FBE1040E0BC0DBFF050E0CC0B7
:10298000DBFF040EDB1C0B6E050EDB1C0C6E040E55
:102990000BC0DBFF050E0CC0DBFF040EDBCF11F01C
:1029A000050EDBCF12F0DECF0FF0DDCF10F0D890A8
:1029B0000F361036FD0EDB500F24E96EFE0EDB5095
:1029C0001020EA6E1150EE140D6E1250EE140E6EC1
:1029D000DECF0BF0DDCF0CF0D8900B360C36FD0EB1
:1029E000DB500B24E96EFE0EDB500C20EA6E0DC0AE
:1029F000EEFF0EC0EDFF060EE15C02E2E16AE55279
:102A0000E16EE552E7CFD9FF1200D9CFE6FFE1CF63
:102A1000D9FF060EE126FB0EDBCFE6FFFC0EDBCF77
:102A2000E6FFA9DDE552E552F3CFDEFFF4CFDDFF8F
:102A3000FB0EDBCFE6FFFC0EDBCFE6FFEEDCE55264
:102A4000E552020EF3CFDBFF030EF4CFDBFF010EE6
:102A5000F36E040EF3CFDBFF050EDB6A040EDBCF53
:102A60000DF0050EDBCF0EF0020EDB500DC00BF0AB
:102A70000EC00CF005E0D8900B360C36E804FBE1F4
:102A8000040E0BC0DBFF050E0CC0DBFF040EDBCF1A
:102A90000FF0050EDBCF10F0DECF0DF0DDCF0EF026
:102AA000D8900D360E36FD0EDB500D24E96EFE0E6D
:102AB000DB500E20EA6E0F50EE140B6E1050EE1429
:102AC0000C6E0B500C1003E0010E03D002D0000E70
:102AD00000D00B6E060EE15C02E2E16AE552E16EA7
:0A2AE0000B50E552E7CFD9FF1200BA
:062AEA00D9CFE6FFE1CFA9
:102AF000D9FFE652E00EDF6EDF50EC082BE3E60E66
:102B0000DF5C03E0EA0EDF5C01E120D0210EE66E1F
:102B1000DFCFE6FF37EC13F0E552E552A00EE66E8C
:102B2000DFCFE6FF37EC13F0E552E552E20EE66E3A
:102B3000DFCFE6FF37EC13F0E552E552810EE66E8B
:102B4000DFCFE6FF37EC13F0E552E552020EDF244B
:102B5000DF6ED2D7E552E552E7CFD9FF1200D9CFC9
:102B6000E6FFE1CFD9FF040EE126E00EDF6E060E90
:102B7000E66EE66EE00EE66E51EC13F0E552E552BD
:102B8000E5525B0EE66E040EE66EE00EE66E51EC6C
:102B900013F0E552E552E5524F0EE66E020EE66E78
:102BA000E00EE66E51EC13F0E552E552E552660E8A
:102BB000E66EE66AE00EE66E51EC13F0E552E55281
:102BC000E552810EE66EE00EE66E37EC13F0E5524C
:102BD000E552E20EDF6EDF50EC0860E3E60EDF5CEC
:102BE00003E0EA0EDF5C01E155D0010EDB6ADB5049
:102BF00006081FE3020EDB68F00EF36E030EF3CF40
:102C0000DBFFDBCFE6FF020EDBCFE6FF010EDBCF03
:102C1000E6FFDFCFE6FF71EC13F0E552E552E55237
:102C2000E552010EDB50020FE76E010EE7CFDBFF2E
:102C3000DED7DE52080EDD6E010EDB500E0822E3F9
:102C4000F00EF36E020EF3CFDBFF0F0EF36E030EEA
:102C5000F3CFDBFFDBCFE6FF020EDBCFE6FF010E9B
:102C6000DBCFE6FFDFCFE6FF71EC13F0E552E55274
:102C7000E552E552010EDB50020FE76E010EE7CF81
:102C8000DBFFDAD7810EE66EDFCFE6FF37EC13F01D
:102C9000E552E552020EDF24DF6E9DD7040EE15CA3
:102CA00002E2E16AE552E16EE552E7CFD9FF120098
:102CB000D9CFE6FFE1CFD9FF020EE126E00EDF6EAD
:102CC000010EDB6ADF50EC081EE3E60EDF5C03E07A
:102CD000EA0EDF5C01E113D0010EDB6ADB500F0866
:102CE0000EE3E66A010EDBCFE6FFDFCFE6FF51EC35
:102CF00013F0E552E552E552010EDB2AEFD7020E42
:102D0000DF24DF6EDFD7020EE15C02E2E16AE5520A
:102D1000E16EE552E7CFD9FF1200D9CFE6FFE1CF50
:102D2000D9FF020EE126E00EDF6EDE52810EDD6E6F
:102D3000DF50EC0814E3E60EDF5C03E0EA0EDF5C34
:102D400001E109D0010EDBCFE6FFDFCFE6FF37EC74
:102D500013F0E552E552020EDF24DF6EE9D7020ED2
:102D6000E15C02E2E16AE552E16EE552E7CFD9FFAC
:102D70001200D9CFE6FFE1CFD9FF050EE126010E03
:102D8000DB6A040EDB6AF36EDBCFF4FFF350F45C16
:102D900001E3BCD0FD0EDBCFE6FFFE0EDBCFE6FF8E
:102DA000DBEC11F0E552E552020EF3CFDBFF030E30
:102DB000F4CFDBFF020EDBCF06F0030EDBCF07F014
:102DC000090E061801E1075001E177D0080E061838
:102DD00001E107506FE0070E061801E1075067E0B8
:102DE000060E061801E107505FE0050E061801E126
:102DF000075057E0040E061801E107504FE0030E9C
:102E0000061801E1075047E0020E061801E10750DD
:102E10003FE0010E061801E1075037E0065001E1DE
:102E2000075002E0DF6A4CD0040EDB5003E13F0E96
:102E3000DF6E2AD0040EDB0411E1FD0EDBCF0BF0B8
:102E4000FE0EDBCF0CF0D8900C5004E60A0E0B5CA3
:102E5000000E0C5803E33F0EDF6E16D0040EDB505D
:102E6000020811E1FD0EDBCF0BF0FE0EDBCF0CF004
:102E7000D8900C5004E60A0E0B5C000E0C5803E3CD
:102E80003F0EDF6E01D0DF6A1BD0060EDF6E18D05A
:102E90005B0EDF6E15D04F0EDF6E12D0660EDF6E4A
:102EA0000FD06D0EDF6E0CD07D0EDF6E09D0070ED9
:102EB000DF6E06D07F0EDF6E03D06F0EDF6E00D0A8
:102EC000FD0EDBCFE6FFFE0EDBCFE6FF7DEC12F062
:102ED000E552E552FD0EF3CFDBFFFE0EF4CFDBFF34
:102EE000DFCFE6FF010EDBCFE6FFE00EE66E51EC32
:102EF00013F0E552E552E552010EDB50020FE76E8A
:102F0000010EE7CFDBFF040EDB2A3DD7810EE66E14
:102F1000E00EE66E37EC13F0E552E552050EE15C8B
:102F200002E2E16AE552E16EE552E7CFD9FF120015
:102F3000720ED36E9B6A040EC86E896A8A6A8B6AA7
:102F40008C6A9268936894683F0E956E970EE66E51
:102F500030EC19F0E5527A0EE66E610EE66E14EC76
:102F600019F0E552E5521200E3DF040EE66E7EEC46
:102F700019F0E552800EE66E080EE66E4CEC19F084
:102F8000E552E55275EC15F058EC16F010EC00F037
:102F90000A0EE66E67EC19F0E5525DEC01F0E0EC2C
:102FA00010F0000901E083D08150010B0FE0000117
:102FB000CD510CE1010EE66EE66A59EC02F0E552E5
:102FC000E552838E0001010ECD6F37D08150020B88
:102FD0000FE00001CD510CE1020EE66EE66A59ECFD
:102FE00002F0E552E552838E0001010ECD6F25D02F
:102FF0008150040B0AE00001CD5107E15EEC04F0C2
:10300000838E0001010ECD6F18D081A60DD0030E66
:10301000E66EE66A59EC02F0E552E5520A0EE66EFB
:1030200067EC19F0E55209D081A807D030EC08F020
:103030000A0EE66E67EC19F0E5528150010B09E1CA
:103040008150020B06E18150040B03E1839E0001D5
:10305000CD6BF5EC18F0F3CF0BF0F4CF0CF0FF0EC6
:103060000B5C7F0E0C5822E3970EE66E30EC19F0E5
:10307000E5527A0EE66E610EE66E14EC19F0E5523A
:10308000E552030EE66EE66A59EC02F0E552E552AF
:10309000DAEC10F0F3CF0BF0F4CF0CF00BC0E6FF3E
:1030A0000CC0E6FFB9EC16F0E552E55278D7E0EC3B
:1030B00010F0010810E181A80DD0E4EC10F058ECFC
:1030C00016F010EC00F0640EE66E67EC19F0E552B5
:0A30D0005DEC01F0ECD763D71200AD
:0630DA00060EF66E000E6A
:1030E000F76E000EF86E00010900F550BE6F090082
:1030F000F550BF6F03E1BE6701D03DD00900F55028
:10310000B96F0900F550BA6F0900F550BB6F09009F
:103110000900F550E96E0900F550EA6E0900090052
:103120000900F550BC6F0900F550BD6F090009009A
:10313000F6CFC0F0F7CFC1F0F8CFC2F0B9C0F6FFBC
:10314000BAC0F7FFBBC0F8FF0001BC5302E1BD539A
:1031500007E00900F550EE6EBC07F8E2BD07F9D7AD
:10316000C0C0F6FFC1C0F7FFC2C0F8FF0001BE0734
:08317000000EBF5BBFD7120087
:08317800D9CFE6FFDACFE6FF34
:10318000E1CFD9FFE2CFDAFFFD0EDB50C96EC6AE4C
:1031900002D0FF0E24D00F0EC61408080FE00F0E49
:1031A000C6140B080BE0C6889EA6FED7C750040BBA
:1031B00003E1C750010B10E0000E11D00F0EC61432
:1031C000080804E00F0EC6140B0809E1C7B0FED7CB
:1031D000ACEC19F0C5AC02D0FE0E01D0000EE552E9
:0A31E000E5CFDAFFE7CFD9FF1200B8
:0631EA00D9CFE6FFDACFA9
:1031F000E6FFE1CFD9FFE2CFDAFFE652E652D65042
:10320000DF6E010ED7CFDBFFDECF0BF0DDCF0CF092
:103210000BC0F3FF0CC0F4FFE552E552E552E5CFD9
:08322000DAFFE7CFD9FF12002D
:08322800D9CFE6FFDACFE6FF83
:10323000E1CFD9FFE2CFDAFFE652E652FC0EDBCF58
:10324000DEFFDBCFDDFF010EDB50D76EDF50D66E29
:10325000E552E552E552E5CFDAFFE7CFD9FF12009C
:10326000D9CFE6FFDACFE6FFE1CFD9FFE2CFDAFF31
:10327000FD0EDB507F0BD56ED76AD66AF294FD0E39
:10328000DBAE02D0F28A01D0F29AD58EE552E5CFBC
:08329000DAFFE7CFD9FF1200BD
:08329800D9CFE6FFDACFE6FF13
:1032A000E1CFD9FFE2CFDAFF3F0EC716C66AC56A83
:1032B000FD0EDB50C612FC0EDB50C71294869488BC
:0E32C000C68AE552E5CFDAFFE7CFD9FF12004C
:0232CE00FF0EF1
:1032D000E350146EEF0E01D0F30EE76EE72E6EEFA3
:1032E00019F00C0E136EE76AE72E74EF19F0132E27
:0C32F00073EF19F0142E6CEF19F01200AF
:0432FC00FF0EE3508E
:10330000146E480E01D04C0EE76EE72EFED7E76A2A
:0C331000E72EFED7142EF7D700001200A5
:04331C00000EF36E3E
:1033200000EE00F0060E01D81200EA6002D0EE6A4C
:0C333000FCD7F350E9601200EE6AFCD7F5
:04333C0015EE00F09A
:1033400025EE00F0F86A0A9C6DEC18F0B3EC19F069
:08335000B4EC17F0FBD71200EA
:083358001F0EC514FDE1C75072
:06336000040BFAE112006B
:02336600120053
:08336800000000FF0000FFFF60
:02337000FFFF5D
:01337200005A
:020000040030CA
:0100010008F6
:010003001EDE
:010005008179
:010006008574
:00000001FF
